{
  "contractName": "HealthSystem",
  "abi": [
    {
      "constant": true,
      "inputs": [
        {
          "internalType": "uint256",
          "name": "",
          "type": "uint256"
        }
      ],
      "name": "Doctors_list",
      "outputs": [
        {
          "internalType": "uint256",
          "name": "doctorId",
          "type": "uint256"
        },
        {
          "internalType": "string",
          "name": "name",
          "type": "string"
        },
        {
          "internalType": "uint256",
          "name": "licenseNo",
          "type": "uint256"
        },
        {
          "internalType": "string",
          "name": "specialization",
          "type": "string"
        }
      ],
      "payable": false,
      "stateMutability": "view",
      "type": "function"
    },
    {
      "constant": true,
      "inputs": [
        {
          "internalType": "uint256",
          "name": "",
          "type": "uint256"
        }
      ],
      "name": "HealthRecords_list",
      "outputs": [
        {
          "internalType": "uint256",
          "name": "healthRecordId",
          "type": "uint256"
        },
        {
          "internalType": "uint256",
          "name": "patientId",
          "type": "uint256"
        },
        {
          "internalType": "uint256",
          "name": "doctorId",
          "type": "uint256"
        },
        {
          "internalType": "string",
          "name": "prescription",
          "type": "string"
        },
        {
          "internalType": "string",
          "name": "feedBack",
          "type": "string"
        },
        {
          "internalType": "string",
          "name": "disease",
          "type": "string"
        }
      ],
      "payable": false,
      "stateMutability": "view",
      "type": "function"
    },
    {
      "constant": true,
      "inputs": [
        {
          "internalType": "uint256",
          "name": "",
          "type": "uint256"
        }
      ],
      "name": "Patients_list",
      "outputs": [
        {
          "internalType": "uint256",
          "name": "patientId",
          "type": "uint256"
        },
        {
          "internalType": "string",
          "name": "name",
          "type": "string"
        },
        {
          "internalType": "uint256",
          "name": "yearOfBirth",
          "type": "uint256"
        },
        {
          "internalType": "string",
          "name": "gender",
          "type": "string"
        },
        {
          "internalType": "string",
          "name": "city",
          "type": "string"
        }
      ],
      "payable": false,
      "stateMutability": "view",
      "type": "function"
    },
    {
      "constant": true,
      "inputs": [
        {
          "internalType": "string",
          "name": "",
          "type": "string"
        },
        {
          "internalType": "string",
          "name": "",
          "type": "string"
        }
      ],
      "name": "cityDiseaseMp",
      "outputs": [
        {
          "internalType": "uint256",
          "name": "",
          "type": "uint256"
        }
      ],
      "payable": false,
      "stateMutability": "view",
      "type": "function"
    },
    {
      "constant": true,
      "inputs": [
        {
          "internalType": "string",
          "name": "",
          "type": "string"
        },
        {
          "internalType": "uint256",
          "name": "",
          "type": "uint256"
        }
      ],
      "name": "cityDiseases",
      "outputs": [
        {
          "internalType": "string",
          "name": "",
          "type": "string"
        }
      ],
      "payable": false,
      "stateMutability": "view",
      "type": "function"
    },
    {
      "constant": true,
      "inputs": [
        {
          "internalType": "string",
          "name": "",
          "type": "string"
        },
        {
          "internalType": "string",
          "name": "",
          "type": "string"
        }
      ],
      "name": "diseaseCityMp",
      "outputs": [
        {
          "internalType": "uint256",
          "name": "",
          "type": "uint256"
        }
      ],
      "payable": false,
      "stateMutability": "view",
      "type": "function"
    },
    {
      "constant": true,
      "inputs": [
        {
          "internalType": "string",
          "name": "",
          "type": "string"
        },
        {
          "internalType": "uint256",
          "name": "",
          "type": "uint256"
        }
      ],
      "name": "diseaseInCities",
      "outputs": [
        {
          "internalType": "string",
          "name": "",
          "type": "string"
        }
      ],
      "payable": false,
      "stateMutability": "view",
      "type": "function"
    },
    {
      "constant": true,
      "inputs": [],
      "name": "dummy",
      "outputs": [
        {
          "internalType": "uint256",
          "name": "",
          "type": "uint256"
        }
      ],
      "payable": false,
      "stateMutability": "view",
      "type": "function"
    },
    {
      "constant": true,
      "inputs": [
        {
          "internalType": "string",
          "name": "",
          "type": "string"
        }
      ],
      "name": "isCityPresent",
      "outputs": [
        {
          "internalType": "uint256",
          "name": "",
          "type": "uint256"
        }
      ],
      "payable": false,
      "stateMutability": "view",
      "type": "function"
    },
    {
      "constant": true,
      "inputs": [
        {
          "internalType": "string",
          "name": "",
          "type": "string"
        }
      ],
      "name": "isDiseasePresent",
      "outputs": [
        {
          "internalType": "uint256",
          "name": "",
          "type": "uint256"
        }
      ],
      "payable": false,
      "stateMutability": "view",
      "type": "function"
    },
    {
      "constant": true,
      "inputs": [],
      "name": "nextDoctorId",
      "outputs": [
        {
          "internalType": "uint256",
          "name": "",
          "type": "uint256"
        }
      ],
      "payable": false,
      "stateMutability": "view",
      "type": "function"
    },
    {
      "constant": true,
      "inputs": [],
      "name": "nextPatientId",
      "outputs": [
        {
          "internalType": "uint256",
          "name": "",
          "type": "uint256"
        }
      ],
      "payable": false,
      "stateMutability": "view",
      "type": "function"
    },
    {
      "constant": true,
      "inputs": [],
      "name": "nextRecordId",
      "outputs": [
        {
          "internalType": "uint256",
          "name": "",
          "type": "uint256"
        }
      ],
      "payable": false,
      "stateMutability": "view",
      "type": "function"
    },
    {
      "constant": false,
      "inputs": [
        {
          "internalType": "string",
          "name": "name",
          "type": "string"
        },
        {
          "internalType": "uint256",
          "name": "yearOfBirth",
          "type": "uint256"
        },
        {
          "internalType": "string",
          "name": "gender",
          "type": "string"
        },
        {
          "internalType": "string",
          "name": "city",
          "type": "string"
        }
      ],
      "name": "newPatientReg",
      "outputs": [],
      "payable": false,
      "stateMutability": "nonpayable",
      "type": "function"
    },
    {
      "constant": true,
      "inputs": [
        {
          "internalType": "uint256",
          "name": "patientId",
          "type": "uint256"
        }
      ],
      "name": "searchPatient",
      "outputs": [
        {
          "internalType": "string",
          "name": "",
          "type": "string"
        },
        {
          "internalType": "uint256",
          "name": "",
          "type": "uint256"
        },
        {
          "internalType": "string",
          "name": "",
          "type": "string"
        },
        {
          "internalType": "string",
          "name": "",
          "type": "string"
        },
        {
          "internalType": "string",
          "name": "",
          "type": "string"
        },
        {
          "internalType": "uint256",
          "name": "",
          "type": "uint256"
        },
        {
          "internalType": "string",
          "name": "",
          "type": "string"
        },
        {
          "internalType": "string",
          "name": "",
          "type": "string"
        }
      ],
      "payable": false,
      "stateMutability": "view",
      "type": "function"
    },
    {
      "constant": false,
      "inputs": [
        {
          "internalType": "string",
          "name": "name",
          "type": "string"
        },
        {
          "internalType": "uint256",
          "name": "licenseNo",
          "type": "uint256"
        },
        {
          "internalType": "string",
          "name": "specialization",
          "type": "string"
        }
      ],
      "name": "newDoctorReg",
      "outputs": [],
      "payable": false,
      "stateMutability": "nonpayable",
      "type": "function"
    },
    {
      "constant": false,
      "inputs": [
        {
          "internalType": "uint256",
          "name": "patientId",
          "type": "uint256"
        },
        {
          "internalType": "uint256",
          "name": "doctorId",
          "type": "uint256"
        },
        {
          "internalType": "string",
          "name": "prescription",
          "type": "string"
        },
        {
          "internalType": "string",
          "name": "feedBack",
          "type": "string"
        },
        {
          "internalType": "string",
          "name": "disease",
          "type": "string"
        }
      ],
      "name": "newRecordReg",
      "outputs": [],
      "payable": false,
      "stateMutability": "nonpayable",
      "type": "function"
    },
    {
      "constant": false,
      "inputs": [
        {
          "internalType": "string",
          "name": "city",
          "type": "string"
        }
      ],
      "name": "getDiseaseInCity",
      "outputs": [
        {
          "internalType": "string",
          "name": "",
          "type": "string"
        }
      ],
      "payable": false,
      "stateMutability": "nonpayable",
      "type": "function"
    },
    {
      "constant": false,
      "inputs": [
        {
          "internalType": "string",
          "name": "disease",
          "type": "string"
        }
      ],
      "name": "getCityByDisease",
      "outputs": [
        {
          "internalType": "string",
          "name": "",
          "type": "string"
        }
      ],
      "payable": false,
      "stateMutability": "nonpayable",
      "type": "function"
    }
  ],
  "bytecode": "0x608060405260016008556001600a556001600c5534801561001f57600080fd5b5061267c8061002f6000396000f3fe608060405234801561001057600080fd5b50600436106101215760003560e01c80638a74063a116100ad578063b113179511610071578063b113179514610375578063d2c6013814610393578063dbde207d146103c7578063dd19a84b146103e5578063ef7a4d8c1461041557610121565b80638a74063a146102aa578063956762d8146102c657806397506746146102f6578063a7d7dbcc14610312578063aabbfce21461034257610121565b806331b3bac5116100f457806331b3bac5146101de57806332e43a11146101fc578063562a73641461021a5780635899798f1461024a57806381204c8b1461027a57610121565b806306a55f37146101265780630d57ce41146101425780631855dd7a146101795780631be6108b146101a9575b600080fd5b610140600480360361013b919081019061208c565b610445565b005b61015c60048036036101579190810190612063565b610985565b6040516101709897969594939291906122f0565b60405180910390f35b610193600480360361018e9190810190611fa3565b610c50565b6040516101a091906123b8565b60405180910390f35b6101c360048036036101be9190810190612063565b610ca1565b6040516101d59695949392919061248e565b60405180910390f35b6101e6610eb2565b6040516101f391906123b8565b60405180910390f35b610204610eb8565b60405161021191906123b8565b60405180910390f35b610234600480360361022f9190810190611fa3565b610ebe565b60405161024191906123b8565b60405180910390f35b610264600480360361025f9190810190611df7565b610f0f565b60405161027191906123b8565b60405180910390f35b610294600480360361028f9190810190611e38565b610f3d565b6040516102a191906122ce565b60405180910390f35b6102c460048036036102bf9190810190611ef8565b6110e5565b005b6102e060048036036102db9190810190611e38565b6111cd565b6040516102ed91906122ce565b60405180910390f35b610310600480360361030b9190810190611e79565b611375565b005b61032c6004803603610327919081019061200f565b611439565b60405161033991906122ac565b60405180910390f35b61035c60048036036103579190810190612063565b611515565b60405161036c94939291906123d3565b60405180910390f35b61037d611682565b60405161038a91906123b8565b60405180910390f35b6103ad60048036036103a89190810190612063565b611688565b6040516103be959493929190612426565b60405180910390f35b6103cf611893565b6040516103dc91906123b8565b60405180910390f35b6103ff60048036036103fa919081019061200f565b611899565b60405161040c91906122ac565b60405180910390f35b61042f600480360361042a9190810190611df7565b611975565b60405161043c91906123b8565b60405180910390f35b6000600c549050600c600081548092919060010191905055506000869050606061046e886119a3565b90506000600182604051610482919061227a565b908152602001604051809103902054141561055a576003816040516104a7919061227a565b90815260200160405180910390208490806001815401808255809150509060018203906000526020600020016000909192909190915090805190602001906104f0929190611c15565b50506001600282604051610504919061227a565b908152602001604051809103902085604051610520919061227a565b90815260200160405180910390208190555060018082604051610543919061227a565b908152602001604051809103902081905550610689565b600060028260405161056c919061227a565b908152602001604051809103902085604051610588919061227a565b908152602001604051809103902054141561063d5760016002826040516105af919061227a565b9081526020016040518091039020856040516105cb919061227a565b9081526020016040518091039020819055506003816040516105ed919061227a565b9081526020016040518091039020849080600181540180825580915050906001820390600052602060002001600090919290919091509080519060200190610636929190611c15565b5050610688565b60028160405161064d919061227a565b908152602001604051809103902084604051610669919061227a565b9081526020016040518091039020600081548092919060010191905055505b5b600060048560405161069b919061227a565b90815260200160405180910390205414156107745760016004856040516106c2919061227a565b9081526020016040518091039020819055506006846040516106e4919061227a565b908152602001604051809103902081908060018154018082558091505090600182039060005260206000200160009091929091909150908051906020019061072d929190611c15565b50506001600585604051610741919061227a565b90815260200160405180910390208260405161075d919061227a565b9081526020016040518091039020819055506108a3565b6000600585604051610786919061227a565b9081526020016040518091039020826040516107a2919061227a565b90815260200160405180910390205414156108575760016005856040516107c9919061227a565b9081526020016040518091039020826040516107e5919061227a565b908152602001604051809103902081905550600684604051610807919061227a565b9081526020016040518091039020819080600181540180825580915050906001820390600052602060002001600090919290919091509080519060200190610850929190611c15565b50506108a2565b600584604051610867919061227a565b908152602001604051809103902081604051610883919061227a565b9081526020016040518091039020600081548092919060010191905055505b5b6000879050600b6040518060c001604052808681526020018581526020018381526020018981526020018881526020018781525090806001815401808255809150509060018203906000526020600020906006020160009091929091909150600082015181600001556020820151816001015560408201518160020155606082015181600301908051906020019061093c929190611c95565b506080820151816004019080519060200190610959929190611c95565b5060a0820151816005019080519060200190610976929190611c95565b50505050505050505050505050565b6060600060608060606000606080600061099e8a611b37565b9050600781815481106109ad57fe5b906000526020600020906005020160000154600782815481106109cc57fe5b9060005260206000209060050201600101600783815481106109ea57fe5b90600052602060002090600502016002015460078481548110610a0957fe5b90600052602060002090600502016003016040518060400160405280600281526020017f4964000000000000000000000000000000000000000000000000000000000000815250939291906040518060400160405280600c81526020017f50617469656e74206e616d650000000000000000000000000000000000000000815250929190828054600181600116156101000203166002900480601f016020809104026020016040519081016040528092919081815260200182805460018160011615610100020316600290048015610b225780601f10610af757610100808354040283529160200191610b22565b820191906000526020600020905b815481529060010190602001808311610b0557829003601f168201915b505050505092506040518060400160405280600d81526020017f44617465206f662042697274680000000000000000000000000000000000000081525091906040518060400160405280600681526020017f47656e646572000000000000000000000000000000000000000000000000000081525090808054600181600116156101000203166002900480601f016020809104026020016040519081016040528092919081815260200182805460018160011615610100020316600290048015610c2d5780601f10610c0257610100808354040283529160200191610c2d565b820191906000526020600020905b815481529060010190602001808311610c1057829003601f168201915b505050505090509850985098509850985098509850985050919395975091939597565b60058280516020810182018051848252602083016020850120818352809550505050505081805160208101820180518482526020830160208501208183528095505050505050600091509150505481565b600b8181548110610cae57fe5b9060005260206000209060060201600091509050806000015490806001015490806002015490806003018054600181600116156101000203166002900480601f016020809104026020016040519081016040528092919081815260200182805460018160011615610100020316600290048015610d6c5780601f10610d4157610100808354040283529160200191610d6c565b820191906000526020600020905b815481529060010190602001808311610d4f57829003601f168201915b505050505090806004018054600181600116156101000203166002900480601f016020809104026020016040519081016040528092919081815260200182805460018160011615610100020316600290048015610e0a5780601f10610ddf57610100808354040283529160200191610e0a565b820191906000526020600020905b815481529060010190602001808311610ded57829003601f168201915b505050505090806005018054600181600116156101000203166002900480601f016020809104026020016040519081016040528092919081815260200182805460018160011615610100020316600290048015610ea85780601f10610e7d57610100808354040283529160200191610ea8565b820191906000526020600020905b815481529060010190602001808311610e8b57829003601f168201915b5050505050905086565b600a5481565b60005481565b60028280516020810182018051848252602083016020850120818352809550505050505081805160208101820180518482526020830160208501208183528095505050505050600091509150505481565b6001818051602081018201805184825260208301602085012081835280955050505050506000915090505481565b6060600080905060606040518060400160405280600a81526020017f4e6f5f4469736561736500000000000000000000000000000000000000000000815250905060008090505b600385604051610f94919061227a565b9081526020016040518091039020805490508110156110da576060600386604051610fbf919061227a565b90815260200160405180910390208281548110610fd857fe5b906000526020600020018054600181600116156101000203166002900480601f0160208091040260200160405190810160405280929190818152602001828054600181600116156101000203166002900480156110765780601f1061104b57610100808354040283529160200191611076565b820191906000526020600020905b81548152906001019060200180831161105957829003601f168201915b50505050509050600060028760405161108f919061227a565b9081526020016040518091039020826040516110ab919061227a565b9081526020016040518091039020549050848111156110cb578094508193505b50508080600101915050610f84565b508092505050919050565b60008390506000600854905060076040518060a00160405280838152602001888152602001848152602001868152602001858152509080600181540180825580915050906001820390600052602060002090600502016000909192909190915060008201518160000155602082015181600101908051906020019061116b929190611c95565b50604082015181600201556060820151816003019080519060200190611192929190611c95565b5060808201518160040190805190602001906111af929190611c95565b50505050600860008154809291906001019190505550505050505050565b6060600080905060606040518060400160405280600781526020017f4e6f5f4369747900000000000000000000000000000000000000000000000000815250905060008090505b600685604051611224919061227a565b90815260200160405180910390208054905081101561136a57606060068660405161124f919061227a565b9081526020016040518091039020828154811061126857fe5b906000526020600020018054600181600116156101000203166002900480601f0160208091040260200160405190810160405280929190818152602001828054600181600116156101000203166002900480156113065780601f106112db57610100808354040283529160200191611306565b820191906000526020600020905b8154815290600101906020018083116112e957829003601f168201915b50505050509050600060058760405161131f919061227a565b90815260200160405180910390208260405161133b919061227a565b90815260200160405180910390205490508481111561135b578094508193505b50508080600101915050611214565b508092505050919050565b6000600a549050600a600081548092919060010191905055506000839050600960405180608001604052808481526020018781526020018381526020018581525090806001815401808255809150509060018203906000526020600020906004020160009091929091909150600082015181600001556020820151816001019080519060200190611407929190611c95565b5060408201518160020155606082015181600301908051906020019061142e929190611c95565b505050505050505050565b600382805160208101820180518482526020830160208501208183528095505050505050818154811061146857fe5b90600052602060002001600091509150508054600181600116156101000203166002900480601f01602080910402602001604051908101604052809291908181526020018280546001816001161561010002031660029004801561150d5780601f106114e25761010080835404028352916020019161150d565b820191906000526020600020905b8154815290600101906020018083116114f057829003601f168201915b505050505081565b6009818154811061152257fe5b9060005260206000209060040201600091509050806000015490806001018054600181600116156101000203166002900480601f0160208091040260200160405190810160405280929190818152602001828054600181600116156101000203166002900480156115d45780601f106115a9576101008083540402835291602001916115d4565b820191906000526020600020905b8154815290600101906020018083116115b757829003601f168201915b505050505090806002015490806003018054600181600116156101000203166002900480601f0160208091040260200160405190810160405280929190818152602001828054600181600116156101000203166002900480156116785780601f1061164d57610100808354040283529160200191611678565b820191906000526020600020905b81548152906001019060200180831161165b57829003601f168201915b5050505050905084565b60085481565b6007818154811061169557fe5b9060005260206000209060050201600091509050806000015490806001018054600181600116156101000203166002900480601f0160208091040260200160405190810160405280929190818152602001828054600181600116156101000203166002900480156117475780601f1061171c57610100808354040283529160200191611747565b820191906000526020600020905b81548152906001019060200180831161172a57829003601f168201915b505050505090806002015490806003018054600181600116156101000203166002900480601f0160208091040260200160405190810160405280929190818152602001828054600181600116156101000203166002900480156117eb5780601f106117c0576101008083540402835291602001916117eb565b820191906000526020600020905b8154815290600101906020018083116117ce57829003601f168201915b505050505090806004018054600181600116156101000203166002900480601f0160208091040260200160405190810160405280929190818152602001828054600181600116156101000203166002900480156118895780601f1061185e57610100808354040283529160200191611889565b820191906000526020600020905b81548152906001019060200180831161186c57829003601f168201915b5050505050905085565b600c5481565b60068280516020810182018051848252602083016020850120818352809550505050505081815481106118c857fe5b90600052602060002001600091509150508054600181600116156101000203166002900480601f01602080910402602001604051908101604052809291908181526020018280546001816001161561010002031660029004801561196d5780601f106119425761010080835404028352916020019161196d565b820191906000526020600020905b81548152906001019060200180831161195057829003601f168201915b505050505081565b6004818051602081018201805184825260208301602085012081835280955050505050506000915090505481565b606060008090505b600780549050811015611af657826040516020016119c99190612291565b60405160208183030381529060405280519060200120600782815481106119ec57fe5b906000526020600020906005020160000154604051602001611a0e9190612291565b604051602081830303815290604052805190602001201415611ae95760078181548110611a3757fe5b90600052602060002090600502016004018054600181600116156101000203166002900480601f016020809104026020016040519081016040528092919081815260200182805460018160011615610100020316600290048015611adc5780601f10611ab157610100808354040283529160200191611adc565b820191906000526020600020905b815481529060010190602001808311611abf57829003601f168201915b5050505050915050611b32565b80806001019150506119ab565b506040517f08c379a0000000000000000000000000000000000000000000000000000000008152600401611b2990612398565b60405180910390fd5b919050565b600080600090505b600780549050811015611bd45782604051602001611b5d9190612291565b6040516020818303038152906040528051906020012060078281548110611b8057fe5b906000526020600020906005020160000154604051602001611ba29190612291565b604051602081830303815290604052805190602001201415611bc75780915050611c10565b8080600101915050611b3f565b506040517f08c379a0000000000000000000000000000000000000000000000000000000008152600401611c0790612398565b60405180910390fd5b919050565b828054600181600116156101000203166002900490600052602060002090601f016020900481019282601f10611c5657805160ff1916838001178555611c84565b82800160010185558215611c84579182015b82811115611c83578251825591602001919060010190611c68565b5b509050611c919190611d15565b5090565b828054600181600116156101000203166002900490600052602060002090601f016020900481019282601f10611cd657805160ff1916838001178555611d04565b82800160010185558215611d04579182015b82811115611d03578251825591602001919060010190611ce8565b5b509050611d119190611d15565b5090565b611d3791905b80821115611d33576000816000905550600101611d1b565b5090565b90565b600082601f830112611d4b57600080fd5b8135611d5e611d5982612531565b612504565b91508082526020830160208301858383011115611d7a57600080fd5b611d858382846125c5565b50505092915050565b600082601f830112611d9f57600080fd5b8135611db2611dad8261255d565b612504565b91508082526020830160208301858383011115611dce57600080fd5b611dd98382846125c5565b50505092915050565b600081359050611df181612622565b92915050565b600060208284031215611e0957600080fd5b600082013567ffffffffffffffff811115611e2357600080fd5b611e2f84828501611d3a565b91505092915050565b600060208284031215611e4a57600080fd5b600082013567ffffffffffffffff811115611e6457600080fd5b611e7084828501611d8e565b91505092915050565b600080600060608486031215611e8e57600080fd5b600084013567ffffffffffffffff811115611ea857600080fd5b611eb486828701611d8e565b9350506020611ec586828701611de2565b925050604084013567ffffffffffffffff811115611ee257600080fd5b611eee86828701611d8e565b9150509250925092565b60008060008060808587031215611f0e57600080fd5b600085013567ffffffffffffffff811115611f2857600080fd5b611f3487828801611d8e565b9450506020611f4587828801611de2565b935050604085013567ffffffffffffffff811115611f6257600080fd5b611f6e87828801611d8e565b925050606085013567ffffffffffffffff811115611f8b57600080fd5b611f9787828801611d8e565b91505092959194509250565b60008060408385031215611fb657600080fd5b600083013567ffffffffffffffff811115611fd057600080fd5b611fdc85828601611d3a565b925050602083013567ffffffffffffffff811115611ff957600080fd5b61200585828601611d3a565b9150509250929050565b6000806040838503121561202257600080fd5b600083013567ffffffffffffffff81111561203c57600080fd5b61204885828601611d3a565b925050602061205985828601611de2565b9150509250929050565b60006020828403121561207557600080fd5b600061208384828501611de2565b91505092915050565b600080600080600060a086880312156120a457600080fd5b60006120b288828901611de2565b95505060206120c388828901611de2565b945050604086013567ffffffffffffffff8111156120e057600080fd5b6120ec88828901611d8e565b935050606086013567ffffffffffffffff81111561210957600080fd5b61211588828901611d8e565b925050608086013567ffffffffffffffff81111561213257600080fd5b61213e88828901611d8e565b9150509295509295909350565b600061215682612594565b612160818561259f565b93506121708185602086016125d4565b61217981612611565b840191505092915050565b600061218f82612594565b61219981856125b0565b93506121a98185602086016125d4565b80840191505092915050565b60006121c082612589565b6121ca818561259f565b93506121da8185602086016125d4565b6121e381612611565b840191505092915050565b60006121fb60288361259f565b91507f5468697320737461746520646f6573206e6f7420657869737420696e20626c6f60008301527f636b636861696e210000000000000000000000000000000000000000000000006020830152604082019050919050565b61225d816125bb565b82525050565b61227461226f826125bb565b612607565b82525050565b60006122868284612184565b915081905092915050565b600061229d8284612263565b60208201915081905092915050565b600060208201905081810360008301526122c681846121b5565b905092915050565b600060208201905081810360008301526122e8818461214b565b905092915050565b600061010082019050818103600083015261230b818b61214b565b905061231a602083018a612254565b818103604083015261232c818961214b565b90508181036060830152612340818861214b565b90508181036080830152612354818761214b565b905061236360a0830186612254565b81810360c0830152612375818561214b565b905081810360e0830152612389818461214b565b90509998505050505050505050565b600060208201905081810360008301526123b1816121ee565b9050919050565b60006020820190506123cd6000830184612254565b92915050565b60006080820190506123e86000830187612254565b81810360208301526123fa81866121b5565b90506124096040830185612254565b818103606083015261241b81846121b5565b905095945050505050565b600060a08201905061243b6000830188612254565b818103602083015261244d81876121b5565b905061245c6040830186612254565b818103606083015261246e81856121b5565b9050818103608083015261248281846121b5565b90509695505050505050565b600060c0820190506124a36000830189612254565b6124b06020830188612254565b6124bd6040830187612254565b81810360608301526124cf81866121b5565b905081810360808301526124e381856121b5565b905081810360a08301526124f781846121b5565b9050979650505050505050565b6000604051905081810181811067ffffffffffffffff8211171561252757600080fd5b8060405250919050565b600067ffffffffffffffff82111561254857600080fd5b601f19601f8301169050602081019050919050565b600067ffffffffffffffff82111561257457600080fd5b601f19601f8301169050602081019050919050565b600081519050919050565b600081519050919050565b600082825260208201905092915050565b600081905092915050565b6000819050919050565b82818337600083830152505050565b60005b838110156125f25780820151818401526020810190506125d7565b83811115612601576000848401525b50505050565b6000819050919050565b6000601f19601f8301169050919050565b61262b816125bb565b811461263657600080fd5b5056fea365627a7a72315820a4ced7ff3f5ed6b145fc4353d71103953f7c722f95fe877727bafcace58a4cb06c6578706572696d656e74616cf564736f6c63430005100040",
  "source": "pragma solidity ^0.5.0;\r\npragma experimental ABIEncoderV2;\r\ncontract HealthSystem{\r\n    uint public dummy;\r\n    struct Address{\r\n        string streetName;\r\n        string cityName;\r\n        uint pinCode;\r\n        string stateName;\r\n        string countryName;\r\n    }\r\n    \r\n    struct Patient{\r\n        uint patientId;\r\n        string name;\r\n        uint yearOfBirth;\r\n        string gender;\r\n        string city;\r\n        // Address patientAddress;\r\n        // uint[] hrIds ;\r\n    }\r\n    \r\n    struct Doctor{\r\n        uint doctorId;\r\n        string name;\r\n        uint licenseNo;\r\n        string specialization;\r\n    }\r\n    \r\n    struct HealthRecord{\r\n        uint healthRecordId;\r\n        uint patientId;\r\n        uint doctorId;\r\n        string prescription;\r\n        string feedBack;\r\n        string disease;\r\n        // we further need to add test reports and etc etc\r\n    }\r\n    \r\n    //start\r\n    mapping(string => uint) public isCityPresent;\r\n    mapping(string => mapping(string => uint) ) public cityDiseaseMp;\r\n    mapping(string => string[]) public cityDiseases;\r\n    \r\n    mapping(string => uint) public isDiseasePresent;\r\n    mapping(string => mapping(string => uint) ) public diseaseCityMp;\r\n    mapping(string => string[]) public diseaseInCities;\r\n\r\n    // function get(address _addr) public view returns (uint) {\r\n    //     // Mapping always returns a value.\r\n    //     // If the value was never set, it will return the default value.\r\n    //     return myMap[_addr];\r\n    // }\r\n\r\n    // function set(address _addr, uint _i) public {\r\n    //     // Update the value at this address\r\n    //     myMap[_addr] = _i;\r\n    // }\r\n\r\n    // function remove(address _addr) public {\r\n    //     // Reset the value to the default value.\r\n    //     delete myMap[_addr];\r\n    // }\r\n    //end\r\n    \r\n    \r\n    // patient functions\r\n    Patient[] public Patients_list;\r\n    uint public nextPatientId=1;\r\n\r\n    function newPatientReg(string memory name, uint yearOfBirth, string memory gender, string memory city) public{\r\n        uint _yearOfBirth = yearOfBirth;\r\n        uint _id = nextPatientId;\r\n        Patients_list.push(Patient(_id, name, _yearOfBirth, gender, city));\r\n        nextPatientId++;\r\n    }\r\n    \r\n    function searchPatient(uint patientId) view public returns(string memory,uint, string memory,string memory, string memory,uint, string memory,string memory){\r\n        uint i=find_id(patientId);\r\n        return(\"Id\", Patients_list[i].patientId, \"Patient name\", Patients_list[i].name,\"Date of Birth\", Patients_list[i].yearOfBirth, \"Gender\", Patients_list[i].gender);\r\n    }\r\n    \r\n    function find_id(uint patientId)view internal returns(uint){\r\n        for(uint i=0;i<Patients_list.length;i++){\r\n            if(keccak256(abi.encodePacked(Patients_list[i].patientId))== keccak256(abi.encodePacked(patientId)))\r\n            {\r\n                return i;\r\n            }\r\n        }\r\n        revert('This state does not exist in blockchain!');\r\n    }\r\n    \r\n    function find_city(uint patientId) view internal returns(string memory){\r\n        for(uint i=0;i<Patients_list.length;i++){\r\n            if(keccak256(abi.encodePacked(Patients_list[i].patientId))== keccak256(abi.encodePacked(patientId)))\r\n            {\r\n                return Patients_list[i].city;\r\n            }\r\n        }\r\n        revert('This state does not exist in blockchain!');\r\n    }\r\n    \r\n    function isPresent(string memory name)view internal returns(uint){\r\n        uint k=0;\r\n        for(uint i=0;i<Patients_list.length;i++){\r\n            if(keccak256(abi.encodePacked(Patients_list[i].name))==keccak256(abi.encodePacked(name)))\r\n            {\r\n                 k=1;\r\n            }\r\n        }\r\n        return k;\r\n    }\r\n    \r\n    \r\n    // doctor functions\r\n    Doctor[] public Doctors_list;\r\n    uint public nextDoctorId=1;\r\n    \r\n    function newDoctorReg(string memory name, uint licenseNo, string memory specialization) public{\r\n        uint _id = nextDoctorId;\r\n        nextDoctorId++;\r\n        uint _licenseNo = licenseNo;\r\n        Doctors_list.push(Doctor(_id, name, _licenseNo, specialization));\r\n    }\r\n    \r\n    // Health Record functions\r\n    HealthRecord[] public HealthRecords_list;\r\n    uint public nextRecordId=1;\r\n    \r\n    \r\n    function newRecordReg(uint patientId, uint doctorId, string memory prescription, string memory feedBack, string memory disease) public{\r\n        uint _id = nextRecordId;\r\n        nextRecordId++;\r\n        // mapping(string => uint) storage tmp;\r\n        uint _patientId = patientId;\r\n        string memory city = find_city(patientId); // we need to write a function to query the city\r\n        if(isCityPresent[city] == 0){\r\n            // tmp[disease] = 1;\r\n            cityDiseases[city].push(disease);\r\n            cityDiseaseMp[city][disease] = 1;\r\n            isCityPresent[city] = 1;\r\n        }else{\r\n            if(cityDiseaseMp[city][disease] == 0){\r\n                cityDiseaseMp[city][disease] = 1;\r\n                cityDiseases[city].push(disease);\r\n            }else{\r\n                cityDiseaseMp[city][disease]++;\r\n            }\r\n        }\r\n        \r\n        if(isDiseasePresent[disease] == 0){\r\n            isDiseasePresent[disease] = 1;\r\n            diseaseInCities[disease].push(city);\r\n            diseaseCityMp[disease][city] = 1;\r\n        }else{\r\n            if(diseaseCityMp[disease][city] == 0){\r\n                diseaseCityMp[disease][city] = 1;\r\n                diseaseInCities[disease].push(city);\r\n            }else{\r\n                diseaseCityMp[disease][city]++;\r\n            }\r\n        }\r\n        \r\n        uint _doctorId = doctorId;\r\n        HealthRecords_list.push(HealthRecord(_id, _patientId, _doctorId, prescription, feedBack, disease));\r\n    }\r\n    \r\n    function getDiseaseInCity(string memory city) public returns(string memory){\r\n        uint mxval = 0;\r\n        string memory disease = \"No_Disease\";\r\n        for(uint i=0; i<cityDiseases[city].length; i++){\r\n            string memory curDisease = cityDiseases[city][i];\r\n            uint curVal = cityDiseaseMp[city][curDisease];\r\n            if(curVal > mxval){\r\n                mxval = curVal;\r\n                disease = curDisease;\r\n            }\r\n        }\r\n        return disease;\r\n    }\r\n    \r\n    function getCityByDisease(string memory disease) public returns(string memory){\r\n        uint mxval = 0;\r\n        string memory city = \"No_City\";\r\n        for(uint i=0; i<diseaseInCities[disease].length; i++){\r\n            string memory curCity = diseaseInCities[disease][i];\r\n            uint curVal = diseaseCityMp[disease][curCity];\r\n            if(curVal > mxval){\r\n                mxval = curVal;\r\n                city = curCity;\r\n            }\r\n        }\r\n        return city;\r\n    }\r\n    \r\n    \r\n}",
  "sourcePath": "G:\\Repo\\healthSystem\\contracts\\HealthSystem.sol",
  "compiler": {
    "name": "solc",
    "version": "0.5.16+commit.9c3226ce.Emscripten.clang"
  },
  "schemaVersion": "3.4.3",
  "updatedAt": "2021-11-15T14:17:39.789Z",
  "networkType": "ethereum",
  "devdoc": {
    "methods": {}
  },
  "userdoc": {
    "methods": {}
  }
}